{
  "_format": "hh-sol-artifact-1",
  "contractName": "MyEpicNFT",
  "sourceName": "contracts/MyEpicNFT.sol",
  "abi": [
    {
      "inputs": [],
      "stateMutability": "nonpayable",
      "type": "constructor"
    },
    {
      "anonymous": false,
      "inputs": [
        {
          "indexed": true,
          "internalType": "address",
          "name": "owner",
          "type": "address"
        },
        {
          "indexed": true,
          "internalType": "address",
          "name": "approved",
          "type": "address"
        },
        {
          "indexed": true,
          "internalType": "uint256",
          "name": "tokenId",
          "type": "uint256"
        }
      ],
      "name": "Approval",
      "type": "event"
    },
    {
      "anonymous": false,
      "inputs": [
        {
          "indexed": true,
          "internalType": "address",
          "name": "owner",
          "type": "address"
        },
        {
          "indexed": true,
          "internalType": "address",
          "name": "operator",
          "type": "address"
        },
        {
          "indexed": false,
          "internalType": "bool",
          "name": "approved",
          "type": "bool"
        }
      ],
      "name": "ApprovalForAll",
      "type": "event"
    },
    {
      "anonymous": false,
      "inputs": [
        {
          "indexed": false,
          "internalType": "address",
          "name": "sender",
          "type": "address"
        },
        {
          "indexed": false,
          "internalType": "uint256",
          "name": "tokenId",
          "type": "uint256"
        }
      ],
      "name": "NewEpicNFTMinted",
      "type": "event"
    },
    {
      "anonymous": false,
      "inputs": [
        {
          "indexed": true,
          "internalType": "address",
          "name": "from",
          "type": "address"
        },
        {
          "indexed": true,
          "internalType": "address",
          "name": "to",
          "type": "address"
        },
        {
          "indexed": true,
          "internalType": "uint256",
          "name": "tokenId",
          "type": "uint256"
        }
      ],
      "name": "Transfer",
      "type": "event"
    },
    {
      "inputs": [],
      "name": "TOTAL_SUPPLY",
      "outputs": [
        {
          "internalType": "uint256",
          "name": "",
          "type": "uint256"
        }
      ],
      "stateMutability": "view",
      "type": "function"
    },
    {
      "inputs": [
        {
          "internalType": "address",
          "name": "to",
          "type": "address"
        },
        {
          "internalType": "uint256",
          "name": "tokenId",
          "type": "uint256"
        }
      ],
      "name": "approve",
      "outputs": [],
      "stateMutability": "nonpayable",
      "type": "function"
    },
    {
      "inputs": [
        {
          "internalType": "address",
          "name": "owner",
          "type": "address"
        }
      ],
      "name": "balanceOf",
      "outputs": [
        {
          "internalType": "uint256",
          "name": "",
          "type": "uint256"
        }
      ],
      "stateMutability": "view",
      "type": "function"
    },
    {
      "inputs": [
        {
          "internalType": "uint256",
          "name": "tokenId",
          "type": "uint256"
        }
      ],
      "name": "getApproved",
      "outputs": [
        {
          "internalType": "address",
          "name": "",
          "type": "address"
        }
      ],
      "stateMutability": "view",
      "type": "function"
    },
    {
      "inputs": [
        {
          "internalType": "address",
          "name": "owner",
          "type": "address"
        },
        {
          "internalType": "address",
          "name": "operator",
          "type": "address"
        }
      ],
      "name": "isApprovedForAll",
      "outputs": [
        {
          "internalType": "bool",
          "name": "",
          "type": "bool"
        }
      ],
      "stateMutability": "view",
      "type": "function"
    },
    {
      "inputs": [],
      "name": "makeAnEpicNFT",
      "outputs": [],
      "stateMutability": "nonpayable",
      "type": "function"
    },
    {
      "inputs": [],
      "name": "name",
      "outputs": [
        {
          "internalType": "string",
          "name": "",
          "type": "string"
        }
      ],
      "stateMutability": "view",
      "type": "function"
    },
    {
      "inputs": [
        {
          "internalType": "uint256",
          "name": "tokenId",
          "type": "uint256"
        }
      ],
      "name": "ownerOf",
      "outputs": [
        {
          "internalType": "address",
          "name": "",
          "type": "address"
        }
      ],
      "stateMutability": "view",
      "type": "function"
    },
    {
      "inputs": [
        {
          "internalType": "uint256",
          "name": "tokenId",
          "type": "uint256"
        }
      ],
      "name": "pickRandomColour",
      "outputs": [
        {
          "internalType": "string",
          "name": "",
          "type": "string"
        }
      ],
      "stateMutability": "view",
      "type": "function"
    },
    {
      "inputs": [
        {
          "internalType": "uint256",
          "name": "tokenId",
          "type": "uint256"
        }
      ],
      "name": "pickRandomFirstWord",
      "outputs": [
        {
          "internalType": "string",
          "name": "",
          "type": "string"
        }
      ],
      "stateMutability": "view",
      "type": "function"
    },
    {
      "inputs": [
        {
          "internalType": "uint256",
          "name": "tokenId",
          "type": "uint256"
        }
      ],
      "name": "pickRandomSecondWord",
      "outputs": [
        {
          "internalType": "string",
          "name": "",
          "type": "string"
        }
      ],
      "stateMutability": "view",
      "type": "function"
    },
    {
      "inputs": [
        {
          "internalType": "uint256",
          "name": "tokenId",
          "type": "uint256"
        }
      ],
      "name": "pickRandomThirdWord",
      "outputs": [
        {
          "internalType": "string",
          "name": "",
          "type": "string"
        }
      ],
      "stateMutability": "view",
      "type": "function"
    },
    {
      "inputs": [
        {
          "internalType": "address",
          "name": "from",
          "type": "address"
        },
        {
          "internalType": "address",
          "name": "to",
          "type": "address"
        },
        {
          "internalType": "uint256",
          "name": "tokenId",
          "type": "uint256"
        }
      ],
      "name": "safeTransferFrom",
      "outputs": [],
      "stateMutability": "nonpayable",
      "type": "function"
    },
    {
      "inputs": [
        {
          "internalType": "address",
          "name": "from",
          "type": "address"
        },
        {
          "internalType": "address",
          "name": "to",
          "type": "address"
        },
        {
          "internalType": "uint256",
          "name": "tokenId",
          "type": "uint256"
        },
        {
          "internalType": "bytes",
          "name": "data",
          "type": "bytes"
        }
      ],
      "name": "safeTransferFrom",
      "outputs": [],
      "stateMutability": "nonpayable",
      "type": "function"
    },
    {
      "inputs": [
        {
          "internalType": "address",
          "name": "operator",
          "type": "address"
        },
        {
          "internalType": "bool",
          "name": "approved",
          "type": "bool"
        }
      ],
      "name": "setApprovalForAll",
      "outputs": [],
      "stateMutability": "nonpayable",
      "type": "function"
    },
    {
      "inputs": [
        {
          "internalType": "bytes4",
          "name": "interfaceId",
          "type": "bytes4"
        }
      ],
      "name": "supportsInterface",
      "outputs": [
        {
          "internalType": "bool",
          "name": "",
          "type": "bool"
        }
      ],
      "stateMutability": "view",
      "type": "function"
    },
    {
      "inputs": [],
      "name": "symbol",
      "outputs": [
        {
          "internalType": "string",
          "name": "",
          "type": "string"
        }
      ],
      "stateMutability": "view",
      "type": "function"
    },
    {
      "inputs": [
        {
          "internalType": "uint256",
          "name": "tokenId",
          "type": "uint256"
        }
      ],
      "name": "tokenURI",
      "outputs": [
        {
          "internalType": "string",
          "name": "",
          "type": "string"
        }
      ],
      "stateMutability": "view",
      "type": "function"
    },
    {
      "inputs": [
        {
          "internalType": "address",
          "name": "from",
          "type": "address"
        },
        {
          "internalType": "address",
          "name": "to",
          "type": "address"
        },
        {
          "internalType": "uint256",
          "name": "tokenId",
          "type": "uint256"
        }
      ],
      "name": "transferFrom",
      "outputs": [],
      "stateMutability": "nonpayable",
      "type": "function"
    }
  ],
  "bytecode": "0x608060405260405180610100016040528060d38152602001620050f060d39139600890816200002f9190620013d6565b50604051806080016040528060568152602001620051c360569139600990816200005a9190620013d6565b50604051806101e001604052806040518060400160405280600481526020017f4c756b650000000000000000000000000000000000000000000000000000000081525081526020016040518060400160405280600481526020017f4c6561680000000000000000000000000000000000000000000000000000000081525081526020016040518060400160405280600381526020017f48616e000000000000000000000000000000000000000000000000000000000081525081526020016040518060400160405280600581526020017f436865777900000000000000000000000000000000000000000000000000000081525081526020016040518060400160405280600381526020017f42656e000000000000000000000000000000000000000000000000000000000081525081526020016040518060400160405280600381526020017f526179000000000000000000000000000000000000000000000000000000000081525081526020016040518060400160405280600481526020017f46696e6e0000000000000000000000000000000000000000000000000000000081525081526020016040518060400160405280600381526020017f506f65000000000000000000000000000000000000000000000000000000000081525081526020016040518060400160405280600481526020017f4b796c6f0000000000000000000000000000000000000000000000000000000081525081526020016040518060400160405280600581526020017f4c616e646f00000000000000000000000000000000000000000000000000000081525081526020016040518060400160405280600481526020017f526f73650000000000000000000000000000000000000000000000000000000081525081526020016040518060400160405280600481526020017f4f77656e0000000000000000000000000000000000000000000000000000000081525081526020016040518060400160405280600481526020017f426572750000000000000000000000000000000000000000000000000000000081525081526020016040518060400160405280600481526020017f523244320000000000000000000000000000000000000000000000000000000081525081526020016040518060400160405280600481526020017f4333504f00000000000000000000000000000000000000000000000000000000815250815250600a90600f620003ec92919062000faf565b50604051806101e001604052806040518060400160405280600581526020017f4170706c6500000000000000000000000000000000000000000000000000000081525081526020016040518060400160405280600681526020017f42616e616e61000000000000000000000000000000000000000000000000000081525081526020016040518060400160405280600581526020017f477261706500000000000000000000000000000000000000000000000000000081525081526020016040518060400160405280600681526020017f4f72616e6765000000000000000000000000000000000000000000000000000081525081526020016040518060400160405280600481526020017f506c756d0000000000000000000000000000000000000000000000000000000081525081526020016040518060400160405280600b81526020017f53747261775f426572727900000000000000000000000000000000000000000081525081526020016040518060400160405280600a81526020017f426c75655f42657272790000000000000000000000000000000000000000000081525081526020016040518060400160405280600a81526020017f526173705f42657272790000000000000000000000000000000000000000000081525081526020016040518060400160405280600a81526020017f50696e655f4170706c650000000000000000000000000000000000000000000081525081526020016040518060400160405280600b81526020017f426c61636b5f426572727900000000000000000000000000000000000000000081525081526020016040518060400160405280600481526020017f466967730000000000000000000000000000000000000000000000000000000081525081526020016040518060400160405280600981526020017f54616e676572696e65000000000000000000000000000000000000000000000081525081526020016040518060400160405280600c81526020017f447261676f6e5f4672756974000000000000000000000000000000000000000081525081526020016040518060400160405280600581526020017f4d616e676f00000000000000000000000000000000000000000000000000000081525081526020016040518060400160405280600681526020017f52616973696e0000000000000000000000000000000000000000000000000000815250815250600b90600f6200077e92919062000faf565b506040518061022001604052806040518060400160405280600381526020017f436174000000000000000000000000000000000000000000000000000000000081525081526020016040518060400160405280600381526020017f446f67000000000000000000000000000000000000000000000000000000000081525081526020016040518060400160405280600581526020017f4d6f75736500000000000000000000000000000000000000000000000000000081525081526020016040518060400160405280600481526020017f426972640000000000000000000000000000000000000000000000000000000081525081526020016040518060400160405280600581526020017f486f72736500000000000000000000000000000000000000000000000000000081525081526020016040518060400160405280600781526020017f436869636b656e0000000000000000000000000000000000000000000000000081525081526020016040518060400160405280600681526020017f526162626974000000000000000000000000000000000000000000000000000081525081526020016040518060400160405280600581526020017f536e616b6500000000000000000000000000000000000000000000000000000081525081526020016040518060400160405280600381526020017f526174000000000000000000000000000000000000000000000000000000000081525081526020016040518060400160405280600381526020017f506967000000000000000000000000000000000000000000000000000000000081525081526020016040518060400160405280600481526020017f476f61740000000000000000000000000000000000000000000000000000000081525081526020016040518060400160405280600481526020017f4c696f6e0000000000000000000000000000000000000000000000000000000081525081526020016040518060400160405280600881526020017f456c657068616e7400000000000000000000000000000000000000000000000081525081526020016040518060400160405280600481526020017f426561720000000000000000000000000000000000000000000000000000000081525081526020016040518060400160405280600481526020017f42756c6c0000000000000000000000000000000000000000000000000000000081525081526020016040518060400160405280600381526020017f436f77000000000000000000000000000000000000000000000000000000000081525081526020016040518060400160405280600581526020017f5368656570000000000000000000000000000000000000000000000000000000815250815250600c90601162000b869291906200100f565b506040518061014001604052806040518060400160405280600381526020017f726564000000000000000000000000000000000000000000000000000000000081525081526020016040518060400160405280600781526020017f233038433241380000000000000000000000000000000000000000000000000081525081526020016040518060400160405280600581526020017f626c61636b00000000000000000000000000000000000000000000000000000081525081526020016040518060400160405280600681526020017f79656c6c6f77000000000000000000000000000000000000000000000000000081525081526020016040518060400160405280600481526020017f626c75650000000000000000000000000000000000000000000000000000000081525081526020016040518060400160405280600581526020017f677265656e00000000000000000000000000000000000000000000000000000081525081526020016040518060400160405280600781526020017f233636303036360000000000000000000000000000000000000000000000000081525081526020016040518060400160405280600781526020017f233030666663630000000000000000000000000000000000000000000000000081525081526020016040518060400160405280600781526020017f233636333330300000000000000000000000000000000000000000000000000081525081526020016040518060400160405280600781526020017f2366663939666600000000000000000000000000000000000000000000000000815250815250600d90600a62000df19291906200106f565b5034801562000dff57600080fd5b506040518060400160405280600981526020017f5371756172654e465400000000000000000000000000000000000000000000008152506040518060400160405280600681526020017f5351554152450000000000000000000000000000000000000000000000000000815250816000908162000e7d9190620013d6565b50806001908162000e8f9190620013d6565b50505062000edd6040518060400160405280601e81526020017f54686973206973206d79204e465420636f6e74726163742e20576f616821000081525062000ee360201b620011c21760201c565b62001570565b62000f838160405160240162000efa91906200154c565b6040516020818303038152906040527f41304fac000000000000000000000000000000000000000000000000000000007bffffffffffffffffffffffffffffffffffffffffffffffffffffffff19166020820180517bffffffffffffffffffffffffffffffffffffffffffffffffffffffff838183161783525050505062000f8660201b60201c565b50565b60008151905060006a636f6e736f6c652e6c6f679050602083016000808483855afa5050505050565b82805482825590600052602060002090810192821562000ffc579160200282015b8281111562000ffb57825182908162000fea9190620013d6565b509160200191906001019062000fd0565b5b5090506200100b9190620010cf565b5090565b8280548282559060005260206000209081019282156200105c579160200282015b828111156200105b5782518290816200104a9190620013d6565b509160200191906001019062001030565b5b5090506200106b9190620010cf565b5090565b828054828255906000526020600020908101928215620010bc579160200282015b82811115620010bb578251829081620010aa9190620013d6565b509160200191906001019062001090565b5b509050620010cb9190620010cf565b5090565b5b80821115620010f35760008181620010e99190620010f7565b50600101620010d0565b5090565b5080546200110590620011c5565b6000825580601f106200111957506200113a565b601f0160209004906000526020600020908101906200113991906200113d565b5b50565b5b80821115620011585760008160009055506001016200113e565b5090565b600081519050919050565b7f4e487b7100000000000000000000000000000000000000000000000000000000600052604160045260246000fd5b7f4e487b7100000000000000000000000000000000000000000000000000000000600052602260045260246000fd5b60006002820490506001821680620011de57607f821691505b602082108103620011f457620011f362001196565b5b50919050565b60008190508160005260206000209050919050565b60006020601f8301049050919050565b600082821b905092915050565b6000600883026200125e7fffffffffffffffffffffffffffffffffffffffffffffffffffffffffffffffff826200121f565b6200126a86836200121f565b95508019841693508086168417925050509392505050565b6000819050919050565b6000819050919050565b6000620012b7620012b1620012ab8462001282565b6200128c565b62001282565b9050919050565b6000819050919050565b620012d38362001296565b620012eb620012e282620012be565b8484546200122c565b825550505050565b600090565b62001302620012f3565b6200130f818484620012c8565b505050565b5b8181101562001337576200132b600082620012f8565b60018101905062001315565b5050565b601f82111562001386576200135081620011fa565b6200135b846200120f565b810160208510156200136b578190505b620013836200137a856200120f565b83018262001314565b50505b505050565b600082821c905092915050565b6000620013ab600019846008026200138b565b1980831691505092915050565b6000620013c6838362001398565b9150826002028217905092915050565b620013e1826200115c565b67ffffffffffffffff811115620013fd57620013fc62001167565b5b620014098254620011c5565b620014168282856200133b565b600060209050601f8311600181146200144e576000841562001439578287015190505b620014458582620013b8565b865550620014b5565b601f1984166200145e86620011fa565b60005b82811015620014885784890151825560018201915060208501945060208101905062001461565b86831015620014a85784890151620014a4601f89168262001398565b8355505b6001600288020188555050505b505050505050565b600082825260208201905092915050565b60005b83811015620014ee578082015181840152602081019050620014d1565b60008484015250505050565b6000601f19601f8301169050919050565b600062001518826200115c565b620015248185620014bd565b935062001536818560208601620014ce565b6200154181620014fa565b840191505092915050565b600060208201905081810360008301526200156881846200150b565b905092915050565b613b7080620015806000396000f3fe608060405234801561001057600080fd5b50600436106101215760003560e01c8063902d55a5116100ad578063c575757a11610071578063c575757a1461032c578063c87b56dd1461035c578063de9d132f1461038c578063e985e9c514610396578063eb9edb7d146103c657610121565b8063902d55a51461028857806395d89b41146102a6578063a22cb465146102c4578063b187301f146102e0578063b88d4fde1461031057610121565b806323b872dd116100f457806323b872dd146101c05780632de38d68146101dc57806342842e0e1461020c5780636352211e1461022857806370a082311461025857610121565b806301ffc9a71461012657806306fdde0314610156578063081812fc14610174578063095ea7b3146101a4575b600080fd5b610140600480360381019061013b9190612313565b6103f6565b60405161014d919061235b565b60405180910390f35b61015e6104d8565b60405161016b9190612406565b60405180910390f35b61018e6004803603810190610189919061245e565b61056a565b60405161019b91906124cc565b60405180910390f35b6101be60048036038101906101b99190612513565b6105b0565b005b6101da60048036038101906101d59190612553565b6106c7565b005b6101f660048036038101906101f1919061245e565b610727565b6040516102039190612406565b60405180910390f35b61022660048036038101906102219190612553565b61081f565b005b610242600480360381019061023d919061245e565b61083f565b60405161024f91906124cc565b60405180910390f35b610272600480360381019061026d91906125a6565b6108f0565b60405161027f91906125e2565b60405180910390f35b6102906109a7565b60405161029d91906125e2565b60405180910390f35b6102ae6109ac565b6040516102bb9190612406565b60405180910390f35b6102de60048036038101906102d99190612629565b610a3e565b005b6102fa60048036038101906102f5919061245e565b610a54565b6040516103079190612406565b60405180910390f35b61032a6004803603810190610325919061279e565b610b4c565b005b6103466004803603810190610341919061245e565b610bae565b6040516103539190612406565b60405180910390f35b6103766004803603810190610371919061245e565b610ca6565b6040516103839190612406565b60405180910390f35b610394610db8565b005b6103b060048036038101906103ab9190612821565b611036565b6040516103bd919061235b565b60405180910390f35b6103e060048036038101906103db919061245e565b6110ca565b6040516103ed9190612406565b60405180910390f35b60007f80ac58cd000000000000000000000000000000000000000000000000000000007bffffffffffffffffffffffffffffffffffffffffffffffffffffffff1916827bffffffffffffffffffffffffffffffffffffffffffffffffffffffff191614806104c157507f5b5e139f000000000000000000000000000000000000000000000000000000007bffffffffffffffffffffffffffffffffffffffffffffffffffffffff1916827bffffffffffffffffffffffffffffffffffffffffffffffffffffffff1916145b806104d157506104d08261125b565b5b9050919050565b6060600080546104e790612890565b80601f016020809104026020016040519081016040528092919081815260200182805461051390612890565b80156105605780601f1061053557610100808354040283529160200191610560565b820191906000526020600020905b81548152906001019060200180831161054357829003601f168201915b5050505050905090565b6000610575826112c5565b6004600083815260200190815260200160002060009054906101000a900473ffffffffffffffffffffffffffffffffffffffff169050919050565b60006105bb8261083f565b90508073ffffffffffffffffffffffffffffffffffffffff168373ffffffffffffffffffffffffffffffffffffffff160361062b576040517f08c379a000000000000000000000000000000000000000000000000000000000815260040161062290612933565b60405180910390fd5b8073ffffffffffffffffffffffffffffffffffffffff1661064a611310565b73ffffffffffffffffffffffffffffffffffffffff161480610679575061067881610673611310565b611036565b5b6106b8576040517f08c379a00000000000000000000000000000000000000000000000000000000081526004016106af906129c5565b60405180910390fd5b6106c28383611318565b505050565b6106d86106d2611310565b826113d1565b610717576040517f08c379a000000000000000000000000000000000000000000000000000000000815260040161070e90612a57565b60405180910390fd5b610722838383611466565b505050565b6060600061075b610737846116cc565b6040516020016107479190612aff565b60405160208183030381529060405261182c565b9050600a805490508161076e9190612b50565b9050600a818154811061078457610783612b81565b5b90600052602060002001805461079990612890565b80601f01602080910402602001604051908101604052809291908181526020018280546107c590612890565b80156108125780601f106107e757610100808354040283529160200191610812565b820191906000526020600020905b8154815290600101906020018083116107f557829003601f168201915b5050505050915050919050565b61083a83838360405180602001604052806000815250610b4c565b505050565b6000806002600084815260200190815260200160002060009054906101000a900473ffffffffffffffffffffffffffffffffffffffff169050600073ffffffffffffffffffffffffffffffffffffffff168173ffffffffffffffffffffffffffffffffffffffff16036108e7576040517f08c379a00000000000000000000000000000000000000000000000000000000081526004016108de90612bfc565b60405180910390fd5b80915050919050565b60008073ffffffffffffffffffffffffffffffffffffffff168273ffffffffffffffffffffffffffffffffffffffff1603610960576040517f08c379a000000000000000000000000000000000000000000000000000000000815260040161095790612c8e565b60405180910390fd5b600360008373ffffffffffffffffffffffffffffffffffffffff1673ffffffffffffffffffffffffffffffffffffffff168152602001908152602001600020549050919050565b603281565b6060600180546109bb90612890565b80601f01602080910402602001604051908101604052809291908181526020018280546109e790612890565b8015610a345780601f10610a0957610100808354040283529160200191610a34565b820191906000526020600020905b815481529060010190602001808311610a1757829003601f168201915b5050505050905090565b610a50610a49611310565b838361185f565b5050565b60606000610a88610a64846116cc565b604051602001610a749190612cfa565b60405160208183030381529060405261182c565b9050600b8054905081610a9b9190612b50565b9050600b8181548110610ab157610ab0612b81565b5b906000526020600020018054610ac690612890565b80601f0160208091040260200160405190810160405280929190818152602001828054610af290612890565b8015610b3f5780601f10610b1457610100808354040283529160200191610b3f565b820191906000526020600020905b815481529060010190602001808311610b2257829003601f168201915b5050505050915050919050565b610b5d610b57611310565b836113d1565b610b9c576040517f08c379a0000000000000000000000000000000000000000000000000000000008152600401610b9390612a57565b60405180910390fd5b610ba8848484846119cb565b50505050565b60606000610be2610bbe846116cc565b604051602001610bce9190612d68565b60405160208183030381529060405261182c565b9050600c8054905081610bf59190612b50565b9050600c8181548110610c0b57610c0a612b81565b5b906000526020600020018054610c2090612890565b80601f0160208091040260200160405190810160405280929190818152602001828054610c4c90612890565b8015610c995780601f10610c6e57610100808354040283529160200191610c99565b820191906000526020600020905b815481529060010190602001808311610c7c57829003601f168201915b5050505050915050919050565b6060610cb1826112c5565b6000600660008481526020019081526020016000208054610cd190612890565b80601f0160208091040260200160405190810160405280929190818152602001828054610cfd90612890565b8015610d4a5780601f10610d1f57610100808354040283529160200191610d4a565b820191906000526020600020905b815481529060010190602001808311610d2d57829003601f168201915b505050505090506000610d5b611a27565b90506000815103610d70578192505050610db3565b600082511115610da5578082604051602001610d8d929190612d8a565b60405160208183030381529060405292505050610db3565b610dae84611a3e565b925050505b919050565b6000610dc46007611aa6565b905060328110610e09576040517f08c379a0000000000000000000000000000000000000000000000000000000008152600401610e0090612dfa565b60405180910390fd5b6000610e1482610727565b90506000610e2183610a54565b90506000610e2e84610bae565b90506000838383604051602001610e4793929190612e1a565b60405160208183030381529060405290506000610e63866110ca565b90506000600882600985604051602001610e809493929190612f2f565b60405160208183030381529060405290506000610ec584610ea084611ab4565b604051602001610eb19291906130ce565b604051602081830303815290604052611ab4565b9050600081604051602001610eda919061315f565b6040516020818303038152906040529050610f296040518060400160405280601581526020017f0a2d2d2d2d2d2d2d2d2d2d2d2d2d2d2d2d2d2d2d2d00000000000000000000008152506111c2565b610f32816111c2565b610f706040518060400160405280601581526020017f2d2d2d2d2d2d2d2d2d2d2d2d2d2d2d2d2d2d2d2d0a00000000000000000000008152506111c2565b610f7a338a611c4b565b610f848982611c69565b610f8e6007611cd6565b610fb1604051806060016040528060258152602001613ad6602591398a33611cec565b610ff26040518060400160405280601d81526020017f4e4654202573206f662025732068617665206265656e206d696e7465640000008152508a6032611d8b565b7febb98688741ffa4c7589bf325de30cf7becb63de567842e1ccdb6cb949fdc82c338a604051611023929190613181565b60405180910390a1505050505050505050565b6000600560008473ffffffffffffffffffffffffffffffffffffffff1673ffffffffffffffffffffffffffffffffffffffff16815260200190815260200160002060008373ffffffffffffffffffffffffffffffffffffffff1673ffffffffffffffffffffffffffffffffffffffff16815260200190815260200160002060009054906101000a900460ff16905092915050565b606060006110fe6110da846116cc565b6040516020016110ea91906131f6565b60405160208183030381529060405261182c565b9050600d80549050816111119190612b50565b9050600d818154811061112757611126612b81565b5b90600052602060002001805461113c90612890565b80601f016020809104026020016040519081016040528092919081815260200182805461116890612890565b80156111b55780601f1061118a576101008083540402835291602001916111b5565b820191906000526020600020905b81548152906001019060200180831161119857829003601f168201915b5050505050915050919050565b611258816040516024016111d69190612406565b6040516020818303038152906040527f41304fac000000000000000000000000000000000000000000000000000000007bffffffffffffffffffffffffffffffffffffffffffffffffffffffff19166020820180517bffffffffffffffffffffffffffffffffffffffffffffffffffffffff8381831617835250505050611e2a565b50565b60007f01ffc9a7000000000000000000000000000000000000000000000000000000007bffffffffffffffffffffffffffffffffffffffffffffffffffffffff1916827bffffffffffffffffffffffffffffffffffffffffffffffffffffffff1916149050919050565b6112ce81611e53565b61130d576040517f08c379a000000000000000000000000000000000000000000000000000000000815260040161130490612bfc565b60405180910390fd5b50565b600033905090565b816004600083815260200190815260200160002060006101000a81548173ffffffffffffffffffffffffffffffffffffffff021916908373ffffffffffffffffffffffffffffffffffffffff160217905550808273ffffffffffffffffffffffffffffffffffffffff1661138b8361083f565b73ffffffffffffffffffffffffffffffffffffffff167f8c5be1e5ebec7d5bd14f71427d1e84f3dd0314c0f7b2291e5b200ac8c7c3b92560405160405180910390a45050565b6000806113dd8361083f565b90508073ffffffffffffffffffffffffffffffffffffffff168473ffffffffffffffffffffffffffffffffffffffff16148061141f575061141e8185611036565b5b8061145d57508373ffffffffffffffffffffffffffffffffffffffff166114458461056a565b73ffffffffffffffffffffffffffffffffffffffff16145b91505092915050565b8273ffffffffffffffffffffffffffffffffffffffff166114868261083f565b73ffffffffffffffffffffffffffffffffffffffff16146114dc576040517f08c379a00000000000000000000000000000000000000000000000000000000081526004016114d39061328a565b60405180910390fd5b600073ffffffffffffffffffffffffffffffffffffffff168273ffffffffffffffffffffffffffffffffffffffff160361154b576040517f08c379a00000000000000000000000000000000000000000000000000000000081526004016115429061331c565b60405180910390fd5b611556838383611ebf565b611561600082611318565b6001600360008573ffffffffffffffffffffffffffffffffffffffff1673ffffffffffffffffffffffffffffffffffffffff16815260200190815260200160002060008282546115b1919061336b565b925050819055506001600360008473ffffffffffffffffffffffffffffffffffffffff1673ffffffffffffffffffffffffffffffffffffffff1681526020019081526020016000206000828254611608919061339f565b92505081905550816002600083815260200190815260200160002060006101000a81548173ffffffffffffffffffffffffffffffffffffffff021916908373ffffffffffffffffffffffffffffffffffffffff160217905550808273ffffffffffffffffffffffffffffffffffffffff168473ffffffffffffffffffffffffffffffffffffffff167fddf252ad1be2c89b69c2b068fc378daa952ba7f163c4a11628f55a4df523b3ef60405160405180910390a46116c7838383611ec4565b505050565b606060008203611713576040518060400160405280600181526020017f30000000000000000000000000000000000000000000000000000000000000008152509050611827565b600082905060005b6000821461174557808061172e906133d3565b915050600a8261173e919061341b565b915061171b565b60008167ffffffffffffffff81111561176157611760612673565b5b6040519080825280601f01601f1916602001820160405280156117935781602001600182028036833780820191505090505b5090505b60008514611820576001826117ac919061336b565b9150600a856117bb9190612b50565b60306117c7919061339f565b60f81b8183815181106117dd576117dc612b81565b5b60200101907effffffffffffffffffffffffffffffffffffffffffffffffffffffffffffff1916908160001a905350600a85611819919061341b565b9450611797565b8093505050505b919050565b60008160405160200161183f919061344c565b6040516020818303038152906040528051906020012060001c9050919050565b8173ffffffffffffffffffffffffffffffffffffffff168373ffffffffffffffffffffffffffffffffffffffff16036118cd576040517f08c379a00000000000000000000000000000000000000000000000000000000081526004016118c4906134af565b60405180910390fd5b80600560008573ffffffffffffffffffffffffffffffffffffffff1673ffffffffffffffffffffffffffffffffffffffff16815260200190815260200160002060008473ffffffffffffffffffffffffffffffffffffffff1673ffffffffffffffffffffffffffffffffffffffff16815260200190815260200160002060006101000a81548160ff0219169083151502179055508173ffffffffffffffffffffffffffffffffffffffff168373ffffffffffffffffffffffffffffffffffffffff167f17307eab39ab6107e8899845ad3d59bd9653f200f220920489ca2b5937696c31836040516119be919061235b565b60405180910390a3505050565b6119d6848484611466565b6119e284848484611ec9565b611a21576040517f08c379a0000000000000000000000000000000000000000000000000000000008152600401611a1890613541565b60405180910390fd5b50505050565b606060405180602001604052806000815250905090565b6060611a49826112c5565b6000611a53611a27565b90506000815111611a735760405180602001604052806000815250611a9e565b80611a7d846116cc565b604051602001611a8e929190612d8a565b6040516020818303038152906040525b915050919050565b600081600001549050919050565b606060008251905060008103611adc5760405180602001604052806000815250915050611c46565b60006003600283611aed919061339f565b611af7919061341b565b6004611b039190613561565b90506000602082611b14919061339f565b67ffffffffffffffff811115611b2d57611b2c612673565b5b6040519080825280601f01601f191660200182016040528015611b5f5781602001600182028036833780820191505090505b5090506000604051806060016040528060408152602001613afb604091399050600181016020830160005b86811015611c035760038101905062ffffff818a015116603f8160121c168401518060081b905060ff603f83600c1c1686015116810190508060081b905060ff603f8360061c1686015116810190508060081b905060ff603f831686015116810190508060e01b90508084526004840193505050611b8a565b506003860660018114611c1d5760028114611c2d57611c38565b613d3d60f01b6002830352611c38565b603d60f81b60018303525b508484525050819450505050505b919050565b611c65828260405180602001604052806000815250612050565b5050565b611c7282611e53565b611cb1576040517f08c379a0000000000000000000000000000000000000000000000000000000008152600401611ca890613615565b60405180910390fd5b80600660008481526020019081526020016000209081611cd191906137cc565b505050565b6001816000016000828254019250508190555050565b611d86838383604051602401611d049392919061389e565b6040516020818303038152906040527f1c7ec448000000000000000000000000000000000000000000000000000000007bffffffffffffffffffffffffffffffffffffffffffffffffffffffff19166020820180517bffffffffffffffffffffffffffffffffffffffffffffffffffffffff8381831617835250505050611e2a565b505050565b611e25838383604051602401611da3939291906138dc565b6040516020818303038152906040527fca47c4eb000000000000000000000000000000000000000000000000000000007bffffffffffffffffffffffffffffffffffffffffffffffffffffffff19166020820180517bffffffffffffffffffffffffffffffffffffffffffffffffffffffff8381831617835250505050611e2a565b505050565b60008151905060006a636f6e736f6c652e6c6f679050602083016000808483855afa5050505050565b60008073ffffffffffffffffffffffffffffffffffffffff166002600084815260200190815260200160002060009054906101000a900473ffffffffffffffffffffffffffffffffffffffff1673ffffffffffffffffffffffffffffffffffffffff1614159050919050565b505050565b505050565b6000611eea8473ffffffffffffffffffffffffffffffffffffffff166120ab565b15612043578373ffffffffffffffffffffffffffffffffffffffff1663150b7a02611f13611310565b8786866040518563ffffffff1660e01b8152600401611f35949392919061396f565b6020604051808303816000875af1925050508015611f7157506040513d601f19601f82011682018060405250810190611f6e91906139d0565b60015b611ff3573d8060008114611fa1576040519150601f19603f3d011682016040523d82523d6000602084013e611fa6565b606091505b506000815103611feb576040517f08c379a0000000000000000000000000000000000000000000000000000000008152600401611fe290613541565b60405180910390fd5b805181602001fd5b63150b7a0260e01b7bffffffffffffffffffffffffffffffffffffffffffffffffffffffff1916817bffffffffffffffffffffffffffffffffffffffffffffffffffffffff191614915050612048565b600190505b949350505050565b61205a83836120ce565b6120676000848484611ec9565b6120a6576040517f08c379a000000000000000000000000000000000000000000000000000000000815260040161209d90613541565b60405180910390fd5b505050565b6000808273ffffffffffffffffffffffffffffffffffffffff163b119050919050565b600073ffffffffffffffffffffffffffffffffffffffff168273ffffffffffffffffffffffffffffffffffffffff160361213d576040517f08c379a000000000000000000000000000000000000000000000000000000000815260040161213490613a49565b60405180910390fd5b61214681611e53565b15612186576040517f08c379a000000000000000000000000000000000000000000000000000000000815260040161217d90613ab5565b60405180910390fd5b61219260008383611ebf565b6001600360008473ffffffffffffffffffffffffffffffffffffffff1673ffffffffffffffffffffffffffffffffffffffff16815260200190815260200160002060008282546121e2919061339f565b92505081905550816002600083815260200190815260200160002060006101000a81548173ffffffffffffffffffffffffffffffffffffffff021916908373ffffffffffffffffffffffffffffffffffffffff160217905550808273ffffffffffffffffffffffffffffffffffffffff16600073ffffffffffffffffffffffffffffffffffffffff167fddf252ad1be2c89b69c2b068fc378daa952ba7f163c4a11628f55a4df523b3ef60405160405180910390a46122a360008383611ec4565b5050565b6000604051905090565b600080fd5b600080fd5b60007fffffffff0000000000000000000000000000000000000000000000000000000082169050919050565b6122f0816122bb565b81146122fb57600080fd5b50565b60008135905061230d816122e7565b92915050565b600060208284031215612329576123286122b1565b5b6000612337848285016122fe565b91505092915050565b60008115159050919050565b61235581612340565b82525050565b6000602082019050612370600083018461234c565b92915050565b600081519050919050565b600082825260208201905092915050565b60005b838110156123b0578082015181840152602081019050612395565b60008484015250505050565b6000601f19601f8301169050919050565b60006123d882612376565b6123e28185612381565b93506123f2818560208601612392565b6123fb816123bc565b840191505092915050565b6000602082019050818103600083015261242081846123cd565b905092915050565b6000819050919050565b61243b81612428565b811461244657600080fd5b50565b60008135905061245881612432565b92915050565b600060208284031215612474576124736122b1565b5b600061248284828501612449565b91505092915050565b600073ffffffffffffffffffffffffffffffffffffffff82169050919050565b60006124b68261248b565b9050919050565b6124c6816124ab565b82525050565b60006020820190506124e160008301846124bd565b92915050565b6124f0816124ab565b81146124fb57600080fd5b50565b60008135905061250d816124e7565b92915050565b6000806040838503121561252a576125296122b1565b5b6000612538858286016124fe565b925050602061254985828601612449565b9150509250929050565b60008060006060848603121561256c5761256b6122b1565b5b600061257a868287016124fe565b935050602061258b868287016124fe565b925050604061259c86828701612449565b9150509250925092565b6000602082840312156125bc576125bb6122b1565b5b60006125ca848285016124fe565b91505092915050565b6125dc81612428565b82525050565b60006020820190506125f760008301846125d3565b92915050565b61260681612340565b811461261157600080fd5b50565b600081359050612623816125fd565b92915050565b600080604083850312156126405761263f6122b1565b5b600061264e858286016124fe565b925050602061265f85828601612614565b9150509250929050565b600080fd5b600080fd5b7f4e487b7100000000000000000000000000000000000000000000000000000000600052604160045260246000fd5b6126ab826123bc565b810181811067ffffffffffffffff821117156126ca576126c9612673565b5b80604052505050565b60006126dd6122a7565b90506126e982826126a2565b919050565b600067ffffffffffffffff82111561270957612708612673565b5b612712826123bc565b9050602081019050919050565b82818337600083830152505050565b600061274161273c846126ee565b6126d3565b90508281526020810184848401111561275d5761275c61266e565b5b61276884828561271f565b509392505050565b600082601f83011261278557612784612669565b5b813561279584826020860161272e565b91505092915050565b600080600080608085870312156127b8576127b76122b1565b5b60006127c6878288016124fe565b94505060206127d7878288016124fe565b93505060406127e887828801612449565b925050606085013567ffffffffffffffff811115612809576128086122b6565b5b61281587828801612770565b91505092959194509250565b60008060408385031215612838576128376122b1565b5b6000612846858286016124fe565b9250506020612857858286016124fe565b9150509250929050565b7f4e487b7100000000000000000000000000000000000000000000000000000000600052602260045260246000fd5b600060028204905060018216806128a857607f821691505b6020821081036128bb576128ba612861565b5b50919050565b7f4552433732313a20617070726f76616c20746f2063757272656e74206f776e6560008201527f7200000000000000000000000000000000000000000000000000000000000000602082015250565b600061291d602183612381565b9150612928826128c1565b604082019050919050565b6000602082019050818103600083015261294c81612910565b9050919050565b7f4552433732313a20617070726f76652063616c6c6572206973206e6f7420746f60008201527f6b656e206f776e6572206e6f7220617070726f76656420666f7220616c6c0000602082015250565b60006129af603e83612381565b91506129ba82612953565b604082019050919050565b600060208201905081810360008301526129de816129a2565b9050919050565b7f4552433732313a2063616c6c6572206973206e6f7420746f6b656e206f776e6560008201527f72206e6f7220617070726f766564000000000000000000000000000000000000602082015250565b6000612a41602e83612381565b9150612a4c826129e5565b604082019050919050565b60006020820190508181036000830152612a7081612a34565b9050919050565b600081905092915050565b7f46495253545f574f524400000000000000000000000000000000000000000000600082015250565b6000612ab8600a83612a77565b9150612ac382612a82565b600a82019050919050565b6000612ad982612376565b612ae38185612a77565b9350612af3818560208601612392565b80840191505092915050565b6000612b0a82612aab565b9150612b168284612ace565b915081905092915050565b7f4e487b7100000000000000000000000000000000000000000000000000000000600052601260045260246000fd5b6000612b5b82612428565b9150612b6683612428565b925082612b7657612b75612b21565b5b828206905092915050565b7f4e487b7100000000000000000000000000000000000000000000000000000000600052603260045260246000fd5b7f4552433732313a20696e76616c696420746f6b656e2049440000000000000000600082015250565b6000612be6601883612381565b9150612bf182612bb0565b602082019050919050565b60006020820190508181036000830152612c1581612bd9565b9050919050565b7f4552433732313a2061646472657373207a65726f206973206e6f74206120766160008201527f6c6964206f776e65720000000000000000000000000000000000000000000000602082015250565b6000612c78602983612381565b9150612c8382612c1c565b604082019050919050565b60006020820190508181036000830152612ca781612c6b565b9050919050565b7f5345434f4e445f574f5244000000000000000000000000000000000000000000600082015250565b6000612ce4600b83612a77565b9150612cef82612cae565b600b82019050919050565b6000612d0582612cd7565b9150612d118284612ace565b915081905092915050565b7f54484952445f574f524400000000000000000000000000000000000000000000600082015250565b6000612d52600a83612a77565b9150612d5d82612d1c565b600a82019050919050565b6000612d7382612d45565b9150612d7f8284612ace565b915081905092915050565b6000612d968285612ace565b9150612da28284612ace565b91508190509392505050565b7f4d617820737570706c7920726561636865642100000000000000000000000000600082015250565b6000612de4601383612381565b9150612def82612dae565b602082019050919050565b60006020820190508181036000830152612e1381612dd7565b9050919050565b6000612e268286612ace565b9150612e328285612ace565b9150612e3e8284612ace565b9150819050949350505050565b60008190508160005260206000209050919050565b60008154612e6d81612890565b612e778186612a77565b94506001821660008114612e925760018114612ea757612eda565b60ff1983168652811515820286019350612eda565b612eb085612e4b565b60005b83811015612ed257815481890152600182019150602081019050612eb3565b838801955050505b50505092915050565b7f3c2f746578743e3c2f7376673e00000000000000000000000000000000000000600082015250565b6000612f19600d83612a77565b9150612f2482612ee3565b600d82019050919050565b6000612f3b8287612e60565b9150612f478286612ace565b9150612f538285612e60565b9150612f5f8284612ace565b9150612f6a82612f0c565b915081905095945050505050565b7f7b226e616d65223a202200000000000000000000000000000000000000000000600082015250565b6000612fae600a83612a77565b9150612fb982612f78565b600a82019050919050565b7f222c20226465736372697074696f6e223a20224120686967686c79206163636c60008201527f61696d656420636f6c6c656374696f6e206f6620737175617265732e222c202260208201527f696d616765223a2022646174613a696d6167652f7376672b786d6c3b6261736560408201527f36342c0000000000000000000000000000000000000000000000000000000000606082015250565b600061306c606383612a77565b915061307782612fc4565b606382019050919050565b7f227d000000000000000000000000000000000000000000000000000000000000600082015250565b60006130b8600283612a77565b91506130c382613082565b600282019050919050565b60006130d982612fa1565b91506130e58285612ace565b91506130f08261305f565b91506130fc8284612ace565b9150613107826130ab565b91508190509392505050565b7f646174613a6170706c69636174696f6e2f6a736f6e3b6261736536342c000000600082015250565b6000613149601d83612a77565b915061315482613113565b601d82019050919050565b600061316a8261313c565b91506131768284612ace565b915081905092915050565b600060408201905061319660008301856124bd565b6131a360208301846125d3565b9392505050565b7f434f4c4f55520000000000000000000000000000000000000000000000000000600082015250565b60006131e0600683612a77565b91506131eb826131aa565b600682019050919050565b6000613201826131d3565b915061320d8284612ace565b915081905092915050565b7f4552433732313a207472616e736665722066726f6d20696e636f72726563742060008201527f6f776e6572000000000000000000000000000000000000000000000000000000602082015250565b6000613274602583612381565b915061327f82613218565b604082019050919050565b600060208201905081810360008301526132a381613267565b9050919050565b7f4552433732313a207472616e7366657220746f20746865207a65726f2061646460008201527f7265737300000000000000000000000000000000000000000000000000000000602082015250565b6000613306602483612381565b9150613311826132aa565b604082019050919050565b60006020820190508181036000830152613335816132f9565b9050919050565b7f4e487b7100000000000000000000000000000000000000000000000000000000600052601160045260246000fd5b600061337682612428565b915061338183612428565b92508282039050818111156133995761339861333c565b5b92915050565b60006133aa82612428565b91506133b583612428565b92508282019050808211156133cd576133cc61333c565b5b92915050565b60006133de82612428565b91507fffffffffffffffffffffffffffffffffffffffffffffffffffffffffffffffff82036134105761340f61333c565b5b600182019050919050565b600061342682612428565b915061343183612428565b92508261344157613440612b21565b5b828204905092915050565b60006134588284612ace565b915081905092915050565b7f4552433732313a20617070726f766520746f2063616c6c657200000000000000600082015250565b6000613499601983612381565b91506134a482613463565b602082019050919050565b600060208201905081810360008301526134c88161348c565b9050919050565b7f4552433732313a207472616e7366657220746f206e6f6e20455243373231526560008201527f63656976657220696d706c656d656e7465720000000000000000000000000000602082015250565b600061352b603283612381565b9150613536826134cf565b604082019050919050565b6000602082019050818103600083015261355a8161351e565b9050919050565b600061356c82612428565b915061357783612428565b925082820261358581612428565b9150828204841483151761359c5761359b61333c565b5b5092915050565b7f45524337323155524953746f726167653a2055524920736574206f66206e6f6e60008201527f6578697374656e7420746f6b656e000000000000000000000000000000000000602082015250565b60006135ff602e83612381565b915061360a826135a3565b604082019050919050565b6000602082019050818103600083015261362e816135f2565b9050919050565b60006020601f8301049050919050565b600082821b905092915050565b6000600883026136827fffffffffffffffffffffffffffffffffffffffffffffffffffffffffffffffff82613645565b61368c8683613645565b95508019841693508086168417925050509392505050565b6000819050919050565b60006136c96136c46136bf84612428565b6136a4565b612428565b9050919050565b6000819050919050565b6136e3836136ae565b6136f76136ef826136d0565b848454613652565b825550505050565b600090565b61370c6136ff565b6137178184846136da565b505050565b5b8181101561373b57613730600082613704565b60018101905061371d565b5050565b601f8211156137805761375181612e4b565b61375a84613635565b81016020851015613769578190505b61377d61377585613635565b83018261371c565b50505b505050565b600082821c905092915050565b60006137a360001984600802613785565b1980831691505092915050565b60006137bc8383613792565b9150826002028217905092915050565b6137d582612376565b67ffffffffffffffff8111156137ee576137ed612673565b5b6137f88254612890565b61380382828561373f565b600060209050601f8311600181146138365760008415613824578287015190505b61382e85826137b0565b865550613896565b601f19841661384486612e4b565b60005b8281101561386c57848901518255600182019150602085019450602081019050613847565b868310156138895784890151613885601f891682613792565b8355505b6001600288020188555050505b505050505050565b600060608201905081810360008301526138b881866123cd565b90506138c760208301856125d3565b6138d460408301846124bd565b949350505050565b600060608201905081810360008301526138f681866123cd565b905061390560208301856125d3565b61391260408301846125d3565b949350505050565b600081519050919050565b600082825260208201905092915050565b60006139418261391a565b61394b8185613925565b935061395b818560208601612392565b613964816123bc565b840191505092915050565b600060808201905061398460008301876124bd565b61399160208301866124bd565b61399e60408301856125d3565b81810360608301526139b08184613936565b905095945050505050565b6000815190506139ca816122e7565b92915050565b6000602082840312156139e6576139e56122b1565b5b60006139f4848285016139bb565b91505092915050565b7f4552433732313a206d696e7420746f20746865207a65726f2061646472657373600082015250565b6000613a33602083612381565b9150613a3e826139fd565b602082019050919050565b60006020820190508181036000830152613a6281613a26565b9050919050565b7f4552433732313a20746f6b656e20616c7265616479206d696e74656400000000600082015250565b6000613a9f601c83612381565b9150613aaa82613a69565b602082019050919050565b60006020820190508181036000830152613ace81613a92565b905091905056fe416e204e465420772f20494420257320686173206265656e206d696e74656420746f2025734142434445464748494a4b4c4d4e4f505152535455565758595a6162636465666768696a6b6c6d6e6f707172737475767778797a303132333435363738392b2fa2646970667358221220a256fb90eba93fae38050711ae26f87b710780ea5adfc49cb9bce0a68f7adaa464736f6c634300081100333c73766720786d6c6e733d27687474703a2f2f7777772e77332e6f72672f323030302f73766727207072657365727665417370656374526174696f3d27784d696e594d696e206d656574272076696577426f783d273020302033353020333530273e3c7374796c653e2e62617365207b2066696c6c3a2077686974653b20666f6e742d66616d696c793a2073657269663b20666f6e742d73697a653a20323470783b207d3c2f7374796c653e3c726563742077696474683d273130302527206865696768743d2731303025272066696c6c3d27272f3e3c7465787420783d273530252720793d273530252720636c6173733d27626173652720646f6d696e616e742d626173656c696e653d276d6964646c652720746578742d616e63686f723d276d6964646c65273e",
  "linkReferences": {},
  "deployedLinkReferences": {}
}